{
  "contractName": "ZombieFactory",
  "abi": [
    {
      "constant": true,
      "inputs": [
        {
          "name": "",
          "type": "uint256"
        }
      ],
      "name": "zombies",
      "outputs": [
        {
          "name": "name",
          "type": "string"
        },
        {
          "name": "dna",
          "type": "uint256"
        }
      ],
      "payable": false,
      "stateMutability": "view",
      "type": "function"
    },
    {
      "anonymous": false,
      "inputs": [
        {
          "indexed": false,
          "name": "zombieId",
          "type": "uint256"
        },
        {
          "indexed": false,
          "name": "name",
          "type": "string"
        },
        {
          "indexed": false,
          "name": "dna",
          "type": "uint256"
        }
      ],
      "name": "NewZombie",
      "type": "event"
    },
    {
      "constant": false,
      "inputs": [
        {
          "name": "_name",
          "type": "string"
        }
      ],
      "name": "createRandomZombie",
      "outputs": [],
      "payable": false,
      "stateMutability": "nonpayable",
      "type": "function"
    }
  ],
  "bytecode": "0x60806040526010600055600054600a0a60015534801561001e57600080fd5b506104c38061002e6000396000f30060806040526004361061004c576000357c0100000000000000000000000000000000000000000000000000000000900463ffffffff1680632052465e146100515780637bff0a01146100fe575b600080fd5b34801561005d57600080fd5b5061007c60048036038101908080359060200190929190505050610167565b6040518080602001838152602001828103825284818151815260200191508051906020019080838360005b838110156100c25780820151818401526020810190506100a7565b50505050905090810190601f1680156100ef5780820380516001836020036101000a031916815260200191505b50935050505060405180910390f35b34801561010a57600080fd5b50610165600480360381019080803590602001908201803590602001908080601f0160208091040260200160405190810160405280939291908181526020018383808284378201915050505050509192919290505050610232565b005b60028181548110151561017657fe5b9060005260206000209060020201600091509050806000018054600181600116156101000203166002900480601f0160208091040260200160405190810160405280929190818152602001828054600181600116156101000203166002900480156102225780601f106101f757610100808354040283529160200191610222565b820191906000526020600020905b81548152906001019060200180831161020557829003601f168201915b5050505050908060010154905082565b600061023d8261024d565b905061024982826102cf565b5050565b600080826040518082805190602001908083835b6020831015156102865780518252602082019150602081019050602083039250610261565b6001836020036101000a0380198251168184511680821785525050505050509050019150506040518091039020600190049050600154818115156102c657fe5b06915050919050565b6000600160026040805190810160405280868152602001858152509080600181540180825580915050906001820390600052602060002090600202016000909192909190915060008201518160000190805190602001906103319291906103f2565b506020820151816001015550500390507f88f026aacbbecc90c18411df4b1185fd8d9be2470f1962f192bf84a27d0704b78184846040518084815260200180602001838152602001828103825284818151815260200191508051906020019080838360005b838110156103b1578082015181840152602081019050610396565b50505050905090810190601f1680156103de5780820380516001836020036101000a031916815260200191505b5094505050505060405180910390a1505050565b828054600181600116156101000203166002900490600052602060002090601f016020900481019282601f1061043357805160ff1916838001178555610461565b82800160010185558215610461579182015b82811115610460578251825591602001919060010190610445565b5b50905061046e9190610472565b5090565b61049491905b80821115610490576000816000905550600101610478565b5090565b905600a165627a7a7230582095737e1155ce746b608676604f5b84d4aa8ea5bbd798ff702ca29be5d861d0070029",
  "source": "pragma solidity ^0.4.19;\n/**\n僵尸工场\n */\ncontract ZombieFactory {\n    // 定义DNA的由一个十六位数字\n    uint dnaDigits = 16;\n    // 为了保证唯一性，我们先造一个数据，是10^16，后面通过取模计算让他变成16位数字哦\n    uint dnaModulus = 10 ** dnaDigits;\n    /**\n     * 定义一个事件，用来创建僵尸时被监听到\n     * zombieId uint 僵尸的索引位置\n     * name string 僵尸的名字\n     * dna 僵尸的dna\n     */\n    event NewZombie(uint zombieId, string name, uint dna);\n    // 我们定义一个僵尸的结构体，相当于PHP里的类对象\n    struct Zombie {\n        // 定义名字\n        string name;\n        // 定义DNA\n        uint dna;\n    }\n    // 我们定义一个动态数组zombies，用来存放僵尸结构体 这个数组是公共的 创建后Solidity会自动创建getter方法\n    Zombie[] public zombies;\n\n    /**\n     * 创建僵尸，这是一个私有方法\n     * _name string 僵尸的名字\n     * _dna uint 僵尸的DNA\n     */\n    function _createZombie(string _name, uint _dna) private {\n        // 将一个新的僵尸结构体放入数组，并且将返回的数组长度 - 1 得到该僵尸在数组中的索引位置\n        uint id = zombies.push(Zombie(_name, _dna)) - 1;\n        // 当创建了一个僵尸后触发事件\n        NewZombie(id, _name, _dna);\n    }\n    /**\n     * 私有方法\n     * 这个函数不访问应用里的数据，所以使用view\n     * 如果不访问应用的状态，使用pure\n     * 生成随机DNA的方法\n     * _str 传入的任意字符串\n     * return 返回一个uint的DNA\n     */\n    function _generateRandDna(string _str) private view returns (uint) {\n        // 通过keccak256散列函数生成一个256位的16进制数字，然后转换为uint类型\n        uint rand = uint(keccak256(_str));\n        // 通过随机值 取模 得到一个16位的DNA 返回\n        return rand % dnaModulus;\n    }\n    /**\n     * 公共 函数\n     * 创建一个僵尸\n     */\n    function createRandomZombie(string _name) public {\n        // 先生成DNA\n        uint randDna = _generateRandDna(_name);\n        // 创建僵尸，并触发事件\n        _createZombie(_name, randDna);\n    }\n}",
  "sourcePath": "/mnt/study/eth/demo/cryptozombies/contracts/ZombieFactory.sol",
  "compiler": {
    "name": "solc",
    "version": "0.4.24+commit.e67f0147.Emscripten.clang"
  },
  "schemaVersion": "2.0.1",
  "updatedAt": "2018-09-01T02:36:35.430Z"
}